:0E00000025006400030A64007A0B120BE30A69
:1001C6006C006D00E60A0807E90AEA0AF50A0B025E
:1001D6003F000A023E001E02EC010306AD021F02AA
:1001E600ED01F50A010C3C0003046A036B03FC02F3
:1001F600F70A010C3C00030429032803FC02FE0A4B
:10020600090208014307080B090BE60A0A0B0D024F
:100216006900E9010C026800E801110B0008080CEE
:100226003F00BF021A023D0019023C001D0B0304E9
:100236003D033C03FF021A0B1C0230001D02310075
:10024600FF0C3E007F001E02590132001F025A01B8
:10025600330011026900E90110026800E801610C2F
:100266002A00470C2B00060913023F0012023E002B
:100276001E02C80130001F0203069F02C901310099
:1002860013026900E90112026800E801C30C2A00A2
:10029600720C2B00060911023F0010023E001E02DE
:1002A600C80132001F0203069F02C9013300FF0C7A
:1002B6003C007D001C0250013E001D0251013F0022
:1002C6001E023F007E00FF0C52013C00000C530151
:1002D6003D001C021E0139001D021F013A001A02D0
:1002E6006F00EF0119026E00EE01790B000878002D
:1002F6007700170C3900000C3A000504C20C020006
:10030600000C0600860B380243078A0B8B0BDA0BB0
:10031600FF0C2E00000C2F000509000C8F001E0C90
:1003260043068E000306980B990BA50BFF0C2E00B7
:10033600000C2F0005090E023E000F023F001E02B0
:100346003700A50B640C3400C80C35007600030595
:100356007603640C97000306B10BB20BD60B640C44
:100366002E00000C2F0005090E023E000F023F0072
:100376004B0CDE0134004B0C2E00000C2F0005093F
:100386000E023E000F023F00AF0CDE013500140CDA
:100396002E00000C2F0005090E023E000F023F0042
:1003A6001E023600D60B060446042604DA0B140297
:1003B6003F0018029F014307E10BE20BE40B060521
:1003C600E40B15023F0018029F014307EB0BEC0BF1
:1003D600EE0B4605EE0B16023F0018029F0143077F
:1003E600F50BF60BF80B2605F80B010C3F001F0268
:0803F600F801860B860B020AD8
:021FFE00EBFFF7
:00000001FF
